:100000000A128A11FC2F00308A000408840A820731
:1000100000346B34653479347034613464340034C2
:100BCA00F1007108831203138700081488100815AE
:100BDA00A630F000F00BEF2D00008312031308116A
:100BEA000800052E720884000A128A1103200A12CC
:100BFA008A110A128A11E5250A128A110130F207AE
:100C0A00720884000A128A1103200A128A11003A11
:100C1A00031D102E112EF72D0800F2007208831200
:100C2A0003138700081088100815A630F000F00B8F
:100C3A001C2E000083120313081172030319262EB7
:100C4A00272E2D2E02307206031D2C2E2D2E362E07
:100C5A000D30F100FB30F000F00B312EF10B312E8C
:100C6A00362E080038300A128A1112260A128A1100
:100C7A002130F4007630F300F30B412EF40B412EB1
:100C8A0000000C300A128A1112260A128A11063042
:100C9A000A128A1112260A128A1101300A128A11BC
:100CAA0012260A128A110D30F400FB30F300F30BFE
:100CBA005C2EF40B5C2E612E080083160313870149
:100CCA008801783086008312031387018801860120
:100CDA000A128A1137260A128A1180300A128A11D8
:100CEA0012260A128A110130F2000A128A11F62516
:100CFA000A128A11C0300A128A1112260A128A119D
:100D0A000A128A118E260A128A11852E0A128A114D
:100D1A000028831203130610861006110614861083
:100D2A000611861D992E9A2EB32E31300A128A1177
:100D3A00E5250A128A110230F4004530F300A93081
:100D4A00F200F20BA62EF30BA62EF40BA62EAD2E56
:100D5A00831203138619B22EB32EAD2E061EB62E9B
:100D6A00B72ED02E34300A128A11E5250A128A11BA
:100D7A000230F4004530F300A930F200F20BC32E22
:100D8A00F30BC32EF40BC32ECA2E83120313061AB7
:100D9A00CF2ED02ECA2E861ED32ED42EED2E37302D
:100DAA000A128A11E5250A128A110230F400453026
:100DBA00F300A930F200F20BE02EF30BE02EF40B55
:100DCA00E02EE72E83120313861AEC2EED2EE72E61
:100DDA00061FF02EF12E0A2F2A300A128A11E52553
:100DEA000A128A110230F4004530F300A930F200E9
:100DFA00F20BFD2EF30BFD2EF40BFD2E042F8312A6
:100E0A000313061B092F0A2F042F06108614061136
:100E1A00861D102F112F2A2F32300A128A11E5252A
:100E2A000A128A110230F4004530F300A930F200A8
:100E3A00F20B1D2FF30B1D2FF40B1D2F242F8312E2
:100E4A0003138619292F2A2F242F061E2D2F2E2F02
:100E5A00472F35300A128A11E5250A128A11023003
:100E6A00F4004530F300A930F200F20B3A2FF30BED
:100E7A003A2FF40B3A2F412F83120313061A462FE7
:100E8A00472F412F861E4A2F4B2F642F38300A12C4
:100E9A008A11E5250A128A110230F4004530F3005E
:100EAA00A930F200F20B572FF30B572FF40B572FE1
:100EBA005E2F83120313861A632F642F5E2F061F79
:100ECA00672F682F812F30300A128A11E5250A12FE
:100EDA008A110230F4004530F300A930F200F20B17
:100EEA00742FF30B742FF40B742F7B2F83120313BD
:100EFA00061B802F812F7B2F061086100615861D54
:100F0A00872F882FA12F33300A128A11E5250A125A
:100F1A008A110230F4004530F300A930F200F20BD6
:100F2A00942FF30B942FF40B942F9B2F83120313FC
:100F3A008619A02FA12F9B2F061EA42FA52FBE2FE7
:100F4A0036300A128A11E5250A128A110230F40093
:100F5A004530F300A930F200F20BB12FF30BB12F99
:100F6A00F40BB12FB82F83120313061ABD2FBE2F0D
:100F7A00B82F861EC12FC22FDB2F39300A128A11D1
:100F8A00E5250A128A110230F4004530F300A9302F
:100F9A00F200F20BCE2FF30BCE2FF40BCE2FD52F60
:100FAA0083120313861ADA2FDB2FD52F061FDE2FA3
:100FBA00DF2FF82F23300A128A11E5250A128A1127
:100FCA000230F4004530F300A930F200F20BEB2FA7
:100FDA00F30BEB2FF40BEB2FF22F83120313061BE9
:100FEA00F72FF82FF22F061086100611080083013A
:060FFA000A128A11622EAA
:02400E00FB3F76
:00000001FF
